{
  "_format": "hh-sol-artifact-1",
  "contractName": "Ballot",
  "sourceName": "contracts/TokenizedBallot.sol",
  "abi": [
    {
      "inputs": [
        {
          "internalType": "bytes32[]",
          "name": "proposalNames",
          "type": "bytes32[]"
        },
        {
          "internalType": "address",
          "name": "_tokenContract",
          "type": "address"
        },
        {
          "internalType": "uint256",
          "name": "_targetBlockNumber",
          "type": "uint256"
        }
      ],
      "stateMutability": "nonpayable",
      "type": "constructor"
    },
    {
      "inputs": [
        {
          "internalType": "address",
          "name": "to",
          "type": "address"
        }
      ],
      "name": "delegate",
      "outputs": [],
      "stateMutability": "nonpayable",
      "type": "function"
    },
    {
      "inputs": [
        {
          "internalType": "uint256",
          "name": "",
          "type": "uint256"
        }
      ],
      "name": "proposals",
      "outputs": [
        {
          "internalType": "bytes32",
          "name": "name",
          "type": "bytes32"
        },
        {
          "internalType": "uint256",
          "name": "voteCount",
          "type": "uint256"
        }
      ],
      "stateMutability": "view",
      "type": "function"
    },
    {
      "inputs": [],
      "name": "targetBlockNumber",
      "outputs": [
        {
          "internalType": "uint256",
          "name": "",
          "type": "uint256"
        }
      ],
      "stateMutability": "view",
      "type": "function"
    },
    {
      "inputs": [],
      "name": "tokenContract",
      "outputs": [
        {
          "internalType": "contract IMyVoteToken",
          "name": "",
          "type": "address"
        }
      ],
      "stateMutability": "view",
      "type": "function"
    },
    {
      "inputs": [
        {
          "internalType": "uint256",
          "name": "proposal",
          "type": "uint256"
        },
        {
          "internalType": "uint256",
          "name": "amount",
          "type": "uint256"
        }
      ],
      "name": "vote",
      "outputs": [],
      "stateMutability": "nonpayable",
      "type": "function"
    },
    {
      "inputs": [
        {
          "internalType": "address",
          "name": "",
          "type": "address"
        }
      ],
      "name": "voters",
      "outputs": [
        {
          "internalType": "uint256",
          "name": "weight",
          "type": "uint256"
        },
        {
          "internalType": "bool",
          "name": "voted",
          "type": "bool"
        },
        {
          "internalType": "address",
          "name": "delegate",
          "type": "address"
        },
        {
          "internalType": "uint256",
          "name": "vote",
          "type": "uint256"
        }
      ],
      "stateMutability": "view",
      "type": "function"
    },
    {
      "inputs": [],
      "name": "winnerName",
      "outputs": [
        {
          "internalType": "bytes32",
          "name": "winnerName_",
          "type": "bytes32"
        }
      ],
      "stateMutability": "view",
      "type": "function"
    },
    {
      "inputs": [],
      "name": "winningProposal",
      "outputs": [
        {
          "internalType": "uint256",
          "name": "winningProposal_",
          "type": "uint256"
        }
      ],
      "stateMutability": "view",
      "type": "function"
    }
  ],
  "bytecode": "0x608060405234801561001057600080fd5b506040516108f13803806108f183398101604081905261002f91610100565b600180546001600160a01b0319166001600160a01b038416179055600381905560005b83518110156100c5576002604051806040016040528086848151811061007a5761007a6101d8565b602090810291909101810151825260009181018290528354600181810186559483529181902083516002909302019182559190910151910155806100bd816101ee565b915050610052565b50505050610217565b634e487b7160e01b600052604160045260246000fd5b80516001600160a01b03811681146100fb57600080fd5b919050565b60008060006060848603121561011557600080fd5b83516001600160401b038082111561012c57600080fd5b818601915086601f83011261014057600080fd5b8151602082821115610154576101546100ce565b8160051b604051601f19603f83011681018181108682111715610179576101796100ce565b60405292835281830193508481018201928a84111561019757600080fd5b948201945b838610156101b55785518552948201949382019361019c565b97506101c490508882016100e4565b955050505050604084015190509250925092565b634e487b7160e01b600052603260045260246000fd5b600060001982141561021057634e487b7160e01b600052601160045260246000fd5b5060010190565b6106cb806102266000396000f3fe608060405234801561001057600080fd5b50600436106100885760003560e01c8063609ff1bd1161005b578063609ff1bd14610111578063a3ec138d14610119578063b384abef1461018b578063e2ba53f01461019e57600080fd5b8063013cf08b1461008d5780632a8cd29e146100ba57806355a373d6146100d15780635c19a95c146100fc575b600080fd5b6100a061009b3660046105b2565b6101a6565b604080519283526020830191909152015b60405180910390f35b6100c360035481565b6040519081526020016100b1565b6001546100e4906001600160a01b031681565b6040516001600160a01b0390911681526020016100b1565b61010f61010a3660046105cb565b6101d4565b005b6100c3610434565b61015c6101273660046105cb565b600060208190529081526040902080546001820154600290920154909160ff8116916101009091046001600160a01b03169084565b6040516100b1949392919093845291151560208401526001600160a01b03166040830152606082015260800190565b61010f6101993660046105fb565b6104b1565b6100c361057f565b600281815481106101b657600080fd5b60009182526020909120600290910201805460019091015490915082565b33600090815260208190526040902080546102365760405162461bcd60e51b815260206004820152601960248201527f596f752068617665206e6f20726967687420746f20766f74650000000000000060448201526064015b60405180910390fd5b600181015460ff16156102805760405162461bcd60e51b81526020600482015260126024820152712cb7ba9030b63932b0b23c903b37ba32b21760711b604482015260640161022d565b6001600160a01b0382163314156102d95760405162461bcd60e51b815260206004820152601e60248201527f53656c662d64656c65676174696f6e20697320646973616c6c6f7765642e0000604482015260640161022d565b6001600160a01b038281166000908152602081905260409020600101546101009004161561037c576001600160a01b03918216600090815260208190526040902060010154610100900490911690338214156103775760405162461bcd60e51b815260206004820152601960248201527f466f756e64206c6f6f7020696e2064656c65676174696f6e2e00000000000000604482015260640161022d565b6102d9565b6001600160a01b03821660009081526020819052604090208054600111156103a357600080fd5b600182810180546001600160a81b0319166101006001600160a01b03871602178217905581015460ff1615610415578154600282810154815481106103ea576103ea61061d565b9060005260206000209060020201600101600082825461040a9190610649565b9091555061042f9050565b815481548290600090610429908490610649565b90915550505b505050565b600080805b6002548110156104ac5781600282815481106104575761045761061d565b906000526020600020906002020160010154111561049a57600281815481106104825761048261061d565b90600052602060002090600202016001015491508092505b806104a481610661565b915050610439565b505090565b600154600354604051630748d63560e31b8152336004820152602481019190915282916001600160a01b031690633a46b1a89060440160206040518083038186803b1580156104ff57600080fd5b505afa158015610513573d6000803e3d6000fd5b505050506040513d601f19601f82011682018060405250810190610537919061067c565b101561054257600080fd5b80600283815481106105565761055661061d565b906000526020600020906002020160010160008282546105769190610649565b90915550505050565b6000600261058b610434565b8154811061059b5761059b61061d565b906000526020600020906002020160000154905090565b6000602082840312156105c457600080fd5b5035919050565b6000602082840312156105dd57600080fd5b81356001600160a01b03811681146105f457600080fd5b9392505050565b6000806040838503121561060e57600080fd5b50508035926020909101359150565b634e487b7160e01b600052603260045260246000fd5b634e487b7160e01b600052601160045260246000fd5b6000821982111561065c5761065c610633565b500190565b600060001982141561067557610675610633565b5060010190565b60006020828403121561068e57600080fd5b505191905056fea26469706673582212206404571887171a1bd5c3b926f0d241839dc91585d5b584b9660b55f3cb467ffd64736f6c63430008090033",
  "linkReferences": {},
  "deployedLinkReferences": {}
}